:020000040800F2
:100000000F4880F30988022080F31488BFF36F8FB4
:100010000C4880470C490D4A0D4B01E001C901C253
:100020009A42FBD100200B490B4A00E001C19142EA
:10003000FCD10A4880470A488047FEE77047000025
:10004000000800203D00000810010008000000200A
:100050000000002000000020000000203D000008FB
:100060006500000880B582B000AF194B3B60194AAB
:10007000194B1100180000F033F800F03BF8A023F2
:10008000DB05A022D205126814490A408021C9006C
:100090000A431A6000237B6002E07B6801337B60C7
:1000A0007A683B689A42F8D3A023DB0520229A6144
:1000B00000237B6002E07B6801337B607A683B68E9
:1000C0009A42F8D3A023DB0520229A62E2E7C046D9
:1000D00050C30000006CDC0200127A00FFF3FFFF47
:1000E00080B582B000AF786039603B681800BD46CB
:1000F00002B080BD80B500AF044B044AD26A012132
:100100000A43DA62C046BD4680BDC04600100240C8
:0400000508000001EE
:00000001FF
